{
  "contractName": "Story",
  "abi": [
    {
      "anonymous": false,
      "inputs": [
        {
          "indexed": true,
          "internalType": "address",
          "name": "owner",
          "type": "address"
        },
        {
          "indexed": true,
          "internalType": "address",
          "name": "approved",
          "type": "address"
        },
        {
          "indexed": true,
          "internalType": "uint256",
          "name": "tokenId",
          "type": "uint256"
        }
      ],
      "name": "Approval",
      "type": "event"
    },
    {
      "anonymous": false,
      "inputs": [
        {
          "indexed": true,
          "internalType": "address",
          "name": "owner",
          "type": "address"
        },
        {
          "indexed": true,
          "internalType": "address",
          "name": "operator",
          "type": "address"
        },
        {
          "indexed": false,
          "internalType": "bool",
          "name": "approved",
          "type": "bool"
        }
      ],
      "name": "ApprovalForAll",
      "type": "event"
    },
    {
      "anonymous": false,
      "inputs": [
        {
          "indexed": true,
          "internalType": "uint256",
          "name": "tokenId",
          "type": "uint256"
        },
        {
          "indexed": true,
          "internalType": "uint256",
          "name": "storyId",
          "type": "uint256"
        },
        {
          "indexed": false,
          "internalType": "uint256",
          "name": "timestamp",
          "type": "uint256"
        }
      ],
      "name": "StoryUploaded",
      "type": "event"
    },
    {
      "anonymous": false,
      "inputs": [
        {
          "indexed": true,
          "internalType": "address",
          "name": "from",
          "type": "address"
        },
        {
          "indexed": true,
          "internalType": "address",
          "name": "to",
          "type": "address"
        },
        {
          "indexed": true,
          "internalType": "uint256",
          "name": "tokenId",
          "type": "uint256"
        }
      ],
      "name": "Transfer",
      "type": "event"
    },
    {
      "constant": true,
      "inputs": [
        {
          "internalType": "uint256",
          "name": "",
          "type": "uint256"
        }
      ],
      "name": "_stories",
      "outputs": [
        {
          "internalType": "uint256",
          "name": "tokenId",
          "type": "uint256"
        },
        {
          "internalType": "uint256",
          "name": "storyId",
          "type": "uint256"
        },
        {
          "internalType": "uint256",
          "name": "timestamp",
          "type": "uint256"
        }
      ],
      "payable": false,
      "stateMutability": "view",
      "type": "function"
    },
    {
      "constant": true,
      "inputs": [
        {
          "internalType": "uint256",
          "name": "",
          "type": "uint256"
        }
      ],
      "name": "_tokenPrice",
      "outputs": [
        {
          "internalType": "uint256",
          "name": "",
          "type": "uint256"
        }
      ],
      "payable": false,
      "stateMutability": "view",
      "type": "function"
    },
    {
      "constant": false,
      "inputs": [
        {
          "internalType": "address",
          "name": "to",
          "type": "address"
        },
        {
          "internalType": "uint256",
          "name": "tokenId",
          "type": "uint256"
        }
      ],
      "name": "approve",
      "outputs": [],
      "payable": false,
      "stateMutability": "nonpayable",
      "type": "function"
    },
    {
      "constant": true,
      "inputs": [
        {
          "internalType": "address",
          "name": "owner",
          "type": "address"
        }
      ],
      "name": "balanceOf",
      "outputs": [
        {
          "internalType": "uint256",
          "name": "",
          "type": "uint256"
        }
      ],
      "payable": false,
      "stateMutability": "view",
      "type": "function"
    },
    {
      "constant": true,
      "inputs": [
        {
          "internalType": "uint256",
          "name": "tokenId",
          "type": "uint256"
        }
      ],
      "name": "getApproved",
      "outputs": [
        {
          "internalType": "address",
          "name": "",
          "type": "address"
        }
      ],
      "payable": false,
      "stateMutability": "view",
      "type": "function"
    },
    {
      "constant": true,
      "inputs": [
        {
          "internalType": "address",
          "name": "owner",
          "type": "address"
        },
        {
          "internalType": "address",
          "name": "operator",
          "type": "address"
        }
      ],
      "name": "isApprovedForAll",
      "outputs": [
        {
          "internalType": "bool",
          "name": "",
          "type": "bool"
        }
      ],
      "payable": false,
      "stateMutability": "view",
      "type": "function"
    },
    {
      "constant": true,
      "inputs": [
        {
          "internalType": "uint256",
          "name": "tokenId",
          "type": "uint256"
        }
      ],
      "name": "ownerOf",
      "outputs": [
        {
          "internalType": "address",
          "name": "",
          "type": "address"
        }
      ],
      "payable": false,
      "stateMutability": "view",
      "type": "function"
    },
    {
      "constant": false,
      "inputs": [
        {
          "internalType": "address",
          "name": "from",
          "type": "address"
        },
        {
          "internalType": "address",
          "name": "to",
          "type": "address"
        },
        {
          "internalType": "uint256",
          "name": "tokenId",
          "type": "uint256"
        }
      ],
      "name": "safeTransferFrom",
      "outputs": [],
      "payable": false,
      "stateMutability": "nonpayable",
      "type": "function"
    },
    {
      "constant": false,
      "inputs": [
        {
          "internalType": "address",
          "name": "from",
          "type": "address"
        },
        {
          "internalType": "address",
          "name": "to",
          "type": "address"
        },
        {
          "internalType": "uint256",
          "name": "tokenId",
          "type": "uint256"
        },
        {
          "internalType": "bytes",
          "name": "_data",
          "type": "bytes"
        }
      ],
      "name": "safeTransferFrom",
      "outputs": [],
      "payable": false,
      "stateMutability": "nonpayable",
      "type": "function"
    },
    {
      "constant": false,
      "inputs": [
        {
          "internalType": "address",
          "name": "to",
          "type": "address"
        },
        {
          "internalType": "bool",
          "name": "approved",
          "type": "bool"
        }
      ],
      "name": "setApprovalForAll",
      "outputs": [],
      "payable": false,
      "stateMutability": "nonpayable",
      "type": "function"
    },
    {
      "constant": true,
      "inputs": [
        {
          "internalType": "bytes4",
          "name": "interfaceId",
          "type": "bytes4"
        }
      ],
      "name": "supportsInterface",
      "outputs": [
        {
          "internalType": "bool",
          "name": "",
          "type": "bool"
        }
      ],
      "payable": false,
      "stateMutability": "view",
      "type": "function"
    },
    {
      "constant": true,
      "inputs": [
        {
          "internalType": "uint256",
          "name": "index",
          "type": "uint256"
        }
      ],
      "name": "tokenByIndex",
      "outputs": [
        {
          "internalType": "uint256",
          "name": "",
          "type": "uint256"
        }
      ],
      "payable": false,
      "stateMutability": "view",
      "type": "function"
    },
    {
      "constant": true,
      "inputs": [
        {
          "internalType": "address",
          "name": "owner",
          "type": "address"
        },
        {
          "internalType": "uint256",
          "name": "index",
          "type": "uint256"
        }
      ],
      "name": "tokenOfOwnerByIndex",
      "outputs": [
        {
          "internalType": "uint256",
          "name": "",
          "type": "uint256"
        }
      ],
      "payable": false,
      "stateMutability": "view",
      "type": "function"
    },
    {
      "constant": true,
      "inputs": [],
      "name": "totalSupply",
      "outputs": [
        {
          "internalType": "uint256",
          "name": "",
          "type": "uint256"
        }
      ],
      "payable": false,
      "stateMutability": "view",
      "type": "function"
    },
    {
      "constant": false,
      "inputs": [
        {
          "internalType": "uint256",
          "name": "_tokenId",
          "type": "uint256"
        },
        {
          "internalType": "uint256",
          "name": "_price",
          "type": "uint256"
        }
      ],
      "name": "setForSale",
      "outputs": [],
      "payable": false,
      "stateMutability": "nonpayable",
      "type": "function"
    },
    {
      "constant": false,
      "inputs": [
        {
          "internalType": "uint256",
          "name": "_tokenId",
          "type": "uint256"
        }
      ],
      "name": "purchaseToken",
      "outputs": [],
      "payable": true,
      "stateMutability": "payable",
      "type": "function"
    },
    {
      "constant": false,
      "inputs": [
        {
          "internalType": "uint256[]",
          "name": "_tokenIds",
          "type": "uint256[]"
        }
      ],
      "name": "removeTokenOnSale",
      "outputs": [],
      "payable": false,
      "stateMutability": "nonpayable",
      "type": "function"
    },
    {
      "constant": false,
      "inputs": [
        {
          "internalType": "uint256",
          "name": "storyId",
          "type": "uint256"
        }
      ],
      "name": "mintStory",
      "outputs": [],
      "payable": false,
      "stateMutability": "nonpayable",
      "type": "function"
    },
    {
      "constant": false,
      "inputs": [
        {
          "internalType": "uint256",
          "name": "tokenId",
          "type": "uint256"
        },
        {
          "internalType": "address",
          "name": "to",
          "type": "address"
        }
      ],
      "name": "transferOwnership",
      "outputs": [
        {
          "internalType": "uint256",
          "name": "",
          "type": "uint256"
        },
        {
          "internalType": "address",
          "name": "",
          "type": "address"
        },
        {
          "internalType": "address",
          "name": "",
          "type": "address"
        },
        {
          "internalType": "address",
          "name": "",
          "type": "address"
        }
      ],
      "payable": false,
      "stateMutability": "nonpayable",
      "type": "function"
    },
    {
      "constant": false,
      "inputs": [
        {
          "internalType": "address",
          "name": "from",
          "type": "address"
        },
        {
          "internalType": "address",
          "name": "to",
          "type": "address"
        },
        {
          "internalType": "uint256",
          "name": "tokenId",
          "type": "uint256"
        }
      ],
      "name": "transferFrom",
      "outputs": [],
      "payable": false,
      "stateMutability": "nonpayable",
      "type": "function"
    },
    {
      "constant": true,
      "inputs": [],
      "name": "getTotalCount",
      "outputs": [
        {
          "internalType": "uint256",
          "name": "",
          "type": "uint256"
        }
      ],
      "payable": false,
      "stateMutability": "view",
      "type": "function"
    },
    {
      "constant": true,
      "inputs": [
        {
          "internalType": "uint256",
          "name": "tokenId",
          "type": "uint256"
        }
      ],
      "name": "getStory",
      "outputs": [
        {
          "internalType": "uint256",
          "name": "",
          "type": "uint256"
        },
        {
          "internalType": "uint256",
          "name": "",
          "type": "uint256"
        },
        {
          "internalType": "address[]",
          "name": "",
          "type": "address[]"
        },
        {
          "internalType": "uint256",
          "name": "",
          "type": "uint256"
        }
      ],
      "payable": false,
      "stateMutability": "view",
      "type": "function"
    }
  ],
  "bytecode": "0x60806040526200001c6301ffc9a760e01b6200005260201b60201c565b620000346380ac58cd60e01b6200005260201b60201c565b6200004c63780e9d6360e01b6200005260201b60201c565b6200015b565b63ffffffff60e01b817bffffffffffffffffffffffffffffffffffffffffffffffffffffffff19161415620000ef576040517f08c379a000000000000000000000000000000000000000000000000000000000815260040180806020018281038252601c8152602001807f4552433136353a20696e76616c696420696e746572666163652069640000000081525060200191505060405180910390fd5b6001600080837bffffffffffffffffffffffffffffffffffffffffffffffffffffffff19167bffffffffffffffffffffffffffffffffffffffffffffffffffffffff1916815260200190815260200160002060006101000a81548160ff02191690831515021790555050565b612df2806200016b6000396000f3fe6080604052600436106101355760003560e01c80634f6ccce7116100ab57806370a082311161006f57806370a082311461086a578063a22cb465146108cf578063b88d4fde1461092c578063c2db2c4214610a3e578063e985e9c514610a6c578063f0c3b75814610af557610135565b80634f6ccce71461066157806350bc3605146106b057806356d42bb3146107755780636352211e146107a05780636866d1441461081b57610135565b806318160ddd116100fd57806318160ddd1461036c5780631ba11d461461039757806323b872dd146103f457806329507f731461046f5780632f745c591461057757806342842e0e146105e657610135565b806301ffc9a71461013a57806303cf950f146101ac578063081812fc14610251578063095ea7b3146102cc57806317fcfe2214610327575b600080fd5b34801561014657600080fd5b506101926004803603602081101561015d57600080fd5b8101908080357bffffffffffffffffffffffffffffffffffffffffffffffffffffffff19169060200190929190505050610b30565b604051808215151515815260200191505060405180910390f35b3480156101b857600080fd5b506101e5600480360360208110156101cf57600080fd5b8101908080359060200190929190505050610b97565b6040518085815260200184815260200180602001838152602001828103825284818151815260200191508051906020019060200280838360005b8381101561023a57808201518184015260208101905061021f565b505050509050019550505050505060405180910390f35b34801561025d57600080fd5b5061028a6004803603602081101561027457600080fd5b8101908080359060200190929190505050610d1c565b604051808273ffffffffffffffffffffffffffffffffffffffff1673ffffffffffffffffffffffffffffffffffffffff16815260200191505060405180910390f35b3480156102d857600080fd5b50610325600480360360408110156102ef57600080fd5b81019080803573ffffffffffffffffffffffffffffffffffffffff16906020019092919080359060200190929190505050610db7565b005b34801561033357600080fd5b5061036a6004803603604081101561034a57600080fd5b810190808035906020019092919080359060200190929190505050610f90565b005b34801561037857600080fd5b50610381611130565b6040518082815260200191505060405180910390f35b3480156103a357600080fd5b506103d0600480360360208110156103ba57600080fd5b810190808035906020019092919050505061113d565b60405180848152602001838152602001828152602001935050505060405180910390f35b34801561040057600080fd5b5061046d6004803603606081101561041757600080fd5b81019080803573ffffffffffffffffffffffffffffffffffffffff169060200190929190803573ffffffffffffffffffffffffffffffffffffffff16906020019092919080359060200190929190505050611167565b005b34801561047b57600080fd5b506104c86004803603604081101561049257600080fd5b8101908080359060200190929190803573ffffffffffffffffffffffffffffffffffffffff1690602001909291905050506111f1565b604051808581526020018473ffffffffffffffffffffffffffffffffffffffff1673ffffffffffffffffffffffffffffffffffffffff1681526020018373ffffffffffffffffffffffffffffffffffffffff1673ffffffffffffffffffffffffffffffffffffffff1681526020018273ffffffffffffffffffffffffffffffffffffffff1673ffffffffffffffffffffffffffffffffffffffff16815260200194505050505060405180910390f35b34801561058357600080fd5b506105d06004803603604081101561059a57600080fd5b81019080803573ffffffffffffffffffffffffffffffffffffffff16906020019092919080359060200190929190505050611334565b6040518082815260200191505060405180910390f35b3480156105f257600080fd5b5061065f6004803603606081101561060957600080fd5b81019080803573ffffffffffffffffffffffffffffffffffffffff169060200190929190803573ffffffffffffffffffffffffffffffffffffffff169060200190929190803590602001909291905050506113f3565b005b34801561066d57600080fd5b5061069a6004803603602081101561068457600080fd5b8101908080359060200190929190505050611413565b6040518082815260200191505060405180910390f35b3480156106bc57600080fd5b50610773600480360360208110156106d357600080fd5b81019080803590602001906401000000008111156106f057600080fd5b82018360208201111561070257600080fd5b8035906020019184602083028401116401000000008311171561072457600080fd5b919080806020026020016040519081016040528093929190818152602001838360200280828437600081840152601f19601f820116905080830192505050505050509192919290505050611493565b005b34801561078157600080fd5b5061078a61160b565b6040518082815260200191505060405180910390f35b3480156107ac57600080fd5b506107d9600480360360208110156107c357600080fd5b810190808035906020019092919050505061161a565b604051808273ffffffffffffffffffffffffffffffffffffffff1673ffffffffffffffffffffffffffffffffffffffff16815260200191505060405180910390f35b34801561082757600080fd5b506108546004803603602081101561083e57600080fd5b81019080803590602001909291905050506116e2565b6040518082815260200191505060405180910390f35b34801561087657600080fd5b506108b96004803603602081101561088d57600080fd5b81019080803573ffffffffffffffffffffffffffffffffffffffff1690602001909291905050506116fa565b6040518082815260200191505060405180910390f35b3480156108db57600080fd5b5061092a600480360360408110156108f257600080fd5b81019080803573ffffffffffffffffffffffffffffffffffffffff1690602001909291908035151590602001909291905050506117cf565b005b34801561093857600080fd5b50610a3c6004803603608081101561094f57600080fd5b81019080803573ffffffffffffffffffffffffffffffffffffffff169060200190929190803573ffffffffffffffffffffffffffffffffffffffff16906020019092919080359060200190929190803590602001906401000000008111156109b657600080fd5b8201836020820111156109c857600080fd5b803590602001918460018302840111640100000000831117156109ea57600080fd5b91908080601f016020809104026020016040519081016040528093929190818152602001838380828437600081840152601f19601f820116905080830192505050505050509192919290505050611972565b005b610a6a60048036036020811015610a5457600080fd5b81019080803590602001909291905050506119e4565b005b348015610a7857600080fd5b50610adb60048036036040811015610a8f57600080fd5b81019080803573ffffffffffffffffffffffffffffffffffffffff169060200190929190803573ffffffffffffffffffffffffffffffffffffffff169060200190929190505050611b7a565b604051808215151515815260200191505060405180910390f35b348015610b0157600080fd5b50610b2e60048036036020811015610b1857600080fd5b8101908080359060200190929190505050611c0e565b005b6000806000837bffffffffffffffffffffffffffffffffffffffffffffffffffffffff19167bffffffffffffffffffffffffffffffffffffffffffffffffffffffff1916815260200190815260200160002060009054906101000a900460ff169050919050565b6000806060600080600a6000878152602001908152602001600020600001541415610c2a576040517f08c379a00000000000000000000000000000000000000000000000000000000081526004018080602001828103825260148152602001807f53746f727920646f6573206e6f7420657869737400000000000000000000000081525060200191505060405180910390fd5b600a600086815260200190815260200160002060000154600a600087815260200190815260200160002060010154600a6000888152602001908152602001600020600301600a60008981526020019081526020016000206002015481805480602002602001604051908101604052809291908181526020018280548015610d0657602002820191906000526020600020905b8160009054906101000a900473ffffffffffffffffffffffffffffffffffffffff1673ffffffffffffffffffffffffffffffffffffffff1681526020019060010190808311610cbc575b5050505050915093509350935093509193509193565b6000610d2782611d5f565b610d7c576040517f08c379a000000000000000000000000000000000000000000000000000000000815260040180806020018281038252602c815260200180612ceb602c913960400191505060405180910390fd5b6002600083815260200190815260200160002060009054906101000a900473ffffffffffffffffffffffffffffffffffffffff169050919050565b6000610dc28261161a565b90508073ffffffffffffffffffffffffffffffffffffffff168373ffffffffffffffffffffffffffffffffffffffff161415610e49576040517f08c379a0000000000000000000000000000000000000000000000000000000008152600401808060200182810382526021815260200180612d406021913960400191505060405180910390fd5b8073ffffffffffffffffffffffffffffffffffffffff163373ffffffffffffffffffffffffffffffffffffffff161480610e895750610e888133611b7a565b5b610ede576040517f08c379a0000000000000000000000000000000000000000000000000000000008152600401808060200182810382526038815260200180612c3f6038913960400191505060405180910390fd5b826002600084815260200190815260200160002060006101000a81548173ffffffffffffffffffffffffffffffffffffffff021916908373ffffffffffffffffffffffffffffffffffffffff160217905550818373ffffffffffffffffffffffffffffffffffffffff168273ffffffffffffffffffffffffffffffffffffffff167f8c5be1e5ebec7d5bd14f71427d1e84f3dd0314c0f7b2291e5b200ac8c7c3b92560405160405180910390a4505050565b6000610f9b8361161a565b90503373ffffffffffffffffffffffffffffffffffffffff168173ffffffffffffffffffffffffffffffffffffffff161461103e576040517f08c379a00000000000000000000000000000000000000000000000000000000081526004018080602001828103825260198152602001807f63616c6c6572206973206e6f7420746f6b656e206f776e65720000000000000081525060200191505060405180910390fd5b600082116110b4576040517f08c379a00000000000000000000000000000000000000000000000000000000081526004018080602001828103825260168152602001807f7072696365206973207a65726f206f72206c6f7765720000000000000000000081525060200191505060405180910390fd5b6110be8130611b7a565b611113576040517f08c379a0000000000000000000000000000000000000000000000000000000008152600401808060200182810382526024815260200180612c1b6024913960400191505060405180910390fd5b816009600085815260200190815260200160002081905550505050565b6000600780549050905090565b600a6020528060005260406000206000915090508060000154908060010154908060020154905083565b611172838383611dd1565b600a60008281526020019081526020016000206003018290806001815401808255809150509060018203906000526020600020016000909192909190916101000a81548173ffffffffffffffffffffffffffffffffffffffff021916908373ffffffffffffffffffffffffffffffffffffffff16021790555050505050565b6000806000806112023386886113f3565b6000600a6000888152602001908152602001600020600301805490509050600a600088815260200190815260200160002060000154600a600089815260200190815260200160002060030160008154811061125957fe5b9060005260206000200160009054906101000a900473ffffffffffffffffffffffffffffffffffffffff16600a60008a815260200190815260200160002060030160028403815481106112a857fe5b9060005260206000200160009054906101000a900473ffffffffffffffffffffffffffffffffffffffff16600a60008b815260200190815260200160002060030160018503815481106112f757fe5b9060005260206000200160009054906101000a900473ffffffffffffffffffffffffffffffffffffffff1694509450945094505092959194509250565b600061133f836116fa565b8210611396576040517f08c379a000000000000000000000000000000000000000000000000000000000815260040180806020018281038252602b815260200180612b6e602b913960400191505060405180910390fd5b600560008473ffffffffffffffffffffffffffffffffffffffff1673ffffffffffffffffffffffffffffffffffffffff16815260200190815260200160002082815481106113e057fe5b9060005260206000200154905092915050565b61140e83838360405180602001604052806000815250611972565b505050565b600061141d611130565b8210611474576040517f08c379a000000000000000000000000000000000000000000000000000000000815260040180806020018281038252602c815260200180612d92602c913960400191505060405180910390fd5b6007828154811061148157fe5b90600052602060002001549050919050565b600081511161150a576040517f08c379a00000000000000000000000000000000000000000000000000000000081526004018080602001828103825260118152602001807f746f6b656e49647320697320656d70747900000000000000000000000000000081525060200191505060405180910390fd5b60008090505b815181101561160757600082828151811061152757fe5b60200260200101519050600061153c8261161a565b90508073ffffffffffffffffffffffffffffffffffffffff163373ffffffffffffffffffffffffffffffffffffffff16146115df576040517f08c379a000000000000000000000000000000000000000000000000000000000815260040180806020018281038252601a8152602001807f63616c6c6572206973206e6f7420746f6b656e2073656c6c657200000000000081525060200191505060405180910390fd5b6000600960008481526020019081526020016000208190555050508080600101915050611510565b5050565b6000611615611130565b905090565b6000806001600084815260200190815260200160002060009054906101000a900473ffffffffffffffffffffffffffffffffffffffff169050600073ffffffffffffffffffffffffffffffffffffffff168173ffffffffffffffffffffffffffffffffffffffff1614156116d9576040517f08c379a0000000000000000000000000000000000000000000000000000000008152600401808060200182810382526029815260200180612ca16029913960400191505060405180910390fd5b80915050919050565b60096020528060005260406000206000915090505481565b60008073ffffffffffffffffffffffffffffffffffffffff168273ffffffffffffffffffffffffffffffffffffffff161415611781576040517f08c379a000000000000000000000000000000000000000000000000000000000815260040180806020018281038252602a815260200180612c77602a913960400191505060405180910390fd5b6117c8600360008473ffffffffffffffffffffffffffffffffffffffff1673ffffffffffffffffffffffffffffffffffffffff168152602001908152602001600020611e40565b9050919050565b3373ffffffffffffffffffffffffffffffffffffffff168273ffffffffffffffffffffffffffffffffffffffff161415611871576040517f08c379a00000000000000000000000000000000000000000000000000000000081526004018080602001828103825260198152602001807f4552433732313a20617070726f766520746f2063616c6c65720000000000000081525060200191505060405180910390fd5b80600460003373ffffffffffffffffffffffffffffffffffffffff1673ffffffffffffffffffffffffffffffffffffffff16815260200190815260200160002060008473ffffffffffffffffffffffffffffffffffffffff1673ffffffffffffffffffffffffffffffffffffffff16815260200190815260200160002060006101000a81548160ff0219169083151502179055508173ffffffffffffffffffffffffffffffffffffffff163373ffffffffffffffffffffffffffffffffffffffff167f17307eab39ab6107e8899845ad3d59bd9653f200f220920489ca2b5937696c3183604051808215151515815260200191505060405180910390a35050565b61197d848484611167565b61198984848484611e4e565b6119de576040517f08c379a0000000000000000000000000000000000000000000000000000000008152600401808060200182810382526032815260200180612b996032913960400191505060405180910390fd5b50505050565b6000600960008381526020019081526020016000205490506000611a078361161a565b905081341015611a62576040517f08c379a0000000000000000000000000000000000000000000000000000000008152600401808060200182810382526021815260200180612cca6021913960400191505060405180910390fd5b8073ffffffffffffffffffffffffffffffffffffffff163373ffffffffffffffffffffffffffffffffffffffff161415611b04576040517f08c379a00000000000000000000000000000000000000000000000000000000081526004018080602001828103825260168152602001807f63616c6c657220697320746f6b656e2073656c6c65720000000000000000000081525060200191505060405180910390fd5b60008190508073ffffffffffffffffffffffffffffffffffffffff166108fc349081150290604051600060405180830381858888f19350505050158015611b4f573d6000803e3d6000fd5b50611b5b8233866113f3565b6000600960008681526020019081526020016000208190555050505050565b6000600460008473ffffffffffffffffffffffffffffffffffffffff1673ffffffffffffffffffffffffffffffffffffffff16815260200190815260200160002060008373ffffffffffffffffffffffffffffffffffffffff1673ffffffffffffffffffffffffffffffffffffffff16815260200190815260200160002060009054906101000a900460ff16905092915050565b60006001611c1a611130565b019050611c273382612037565b6060611c31612a27565b604051806080016040528084815260200185815260200142815260200183815250905080600a60008581526020019081526020016000206000820151816000015560208201518160010155604082015181600201556060820151816003019080519060200190611ca2929190612a4f565b50905050600a60008481526020019081526020016000206003013390806001815401808255809150509060018203906000526020600020016000909192909190916101000a81548173ffffffffffffffffffffffffffffffffffffffff021916908373ffffffffffffffffffffffffffffffffffffffff1602179055505083837fc2669f51f2b35ea030efe42d2d608129efe7572828196eaa9a381724aa42efaa426040518082815260200191505060405180910390a350505050565b6000806001600084815260200190815260200160002060009054906101000a900473ffffffffffffffffffffffffffffffffffffffff169050600073ffffffffffffffffffffffffffffffffffffffff168173ffffffffffffffffffffffffffffffffffffffff161415915050919050565b611ddb3382612058565b611e30576040517f08c379a0000000000000000000000000000000000000000000000000000000008152600401808060200182810382526031815260200180612d616031913960400191505060405180910390fd5b611e3b83838361214c565b505050565b600081600001549050919050565b6000611e6f8473ffffffffffffffffffffffffffffffffffffffff16612170565b611e7c576001905061202f565b60008473ffffffffffffffffffffffffffffffffffffffff1663150b7a02338887876040518563ffffffff1660e01b8152600401808573ffffffffffffffffffffffffffffffffffffffff1673ffffffffffffffffffffffffffffffffffffffff1681526020018473ffffffffffffffffffffffffffffffffffffffff1673ffffffffffffffffffffffffffffffffffffffff16815260200183815260200180602001828103825283818151815260200191508051906020019080838360005b83811015611f57578082015181840152602081019050611f3c565b50505050905090810190601f168015611f845780820380516001836020036101000a031916815260200191505b5095505050505050602060405180830381600087803b158015611fa657600080fd5b505af1158015611fba573d6000803e3d6000fd5b505050506040513d6020811015611fd057600080fd5b8101908080519060200190929190505050905063150b7a0260e01b7bffffffffffffffffffffffffffffffffffffffffffffffffffffffff1916817bffffffffffffffffffffffffffffffffffffffffffffffffffffffff1916149150505b949350505050565b6120418282612183565b61204b828261239b565b61205481612462565b5050565b600061206382611d5f565b6120b8576040517f08c379a000000000000000000000000000000000000000000000000000000000815260040180806020018281038252602c815260200180612bef602c913960400191505060405180910390fd5b60006120c38361161a565b90508073ffffffffffffffffffffffffffffffffffffffff168473ffffffffffffffffffffffffffffffffffffffff16148061213257508373ffffffffffffffffffffffffffffffffffffffff1661211a84610d1c565b73ffffffffffffffffffffffffffffffffffffffff16145b8061214357506121428185611b7a565b5b91505092915050565b6121578383836124ae565b6121618382612709565b61216b828261239b565b505050565b600080823b905060008111915050919050565b600073ffffffffffffffffffffffffffffffffffffffff168273ffffffffffffffffffffffffffffffffffffffff161415612226576040517f08c379a00000000000000000000000000000000000000000000000000000000081526004018080602001828103825260208152602001807f4552433732313a206d696e7420746f20746865207a65726f206164647265737381525060200191505060405180910390fd5b61222f81611d5f565b156122a2576040517f08c379a000000000000000000000000000000000000000000000000000000000815260040180806020018281038252601c8152602001807f4552433732313a20746f6b656e20616c7265616479206d696e7465640000000081525060200191505060405180910390fd5b816001600083815260200190815260200160002060006101000a81548173ffffffffffffffffffffffffffffffffffffffff021916908373ffffffffffffffffffffffffffffffffffffffff16021790555061233b600360008473ffffffffffffffffffffffffffffffffffffffff1673ffffffffffffffffffffffffffffffffffffffff1681526020019081526020016000206128a7565b808273ffffffffffffffffffffffffffffffffffffffff16600073ffffffffffffffffffffffffffffffffffffffff167fddf252ad1be2c89b69c2b068fc378daa952ba7f163c4a11628f55a4df523b3ef60405160405180910390a45050565b600560008373ffffffffffffffffffffffffffffffffffffffff1673ffffffffffffffffffffffffffffffffffffffff168152602001908152602001600020805490506006600083815260200190815260200160002081905550600560008373ffffffffffffffffffffffffffffffffffffffff1673ffffffffffffffffffffffffffffffffffffffff1681526020019081526020016000208190806001815401808255809150509060018203906000526020600020016000909192909190915055505050565b6007805490506008600083815260200190815260200160002081905550600781908060018154018082558091505090600182039060005260206000200160009091929091909150555050565b8273ffffffffffffffffffffffffffffffffffffffff166124ce8261161a565b73ffffffffffffffffffffffffffffffffffffffff161461253a576040517f08c379a0000000000000000000000000000000000000000000000000000000008152600401808060200182810382526029815260200180612d176029913960400191505060405180910390fd5b600073ffffffffffffffffffffffffffffffffffffffff168273ffffffffffffffffffffffffffffffffffffffff1614156125c0576040517f08c379a0000000000000000000000000000000000000000000000000000000008152600401808060200182810382526024815260200180612bcb6024913960400191505060405180910390fd5b6125c9816128bd565b612610600360008573ffffffffffffffffffffffffffffffffffffffff1673ffffffffffffffffffffffffffffffffffffffff16815260200190815260200160002061297b565b612657600360008473ffffffffffffffffffffffffffffffffffffffff1673ffffffffffffffffffffffffffffffffffffffff1681526020019081526020016000206128a7565b816001600083815260200190815260200160002060006101000a81548173ffffffffffffffffffffffffffffffffffffffff021916908373ffffffffffffffffffffffffffffffffffffffff160217905550808273ffffffffffffffffffffffffffffffffffffffff168473ffffffffffffffffffffffffffffffffffffffff167fddf252ad1be2c89b69c2b068fc378daa952ba7f163c4a11628f55a4df523b3ef60405160405180910390a4505050565b60006127616001600560008673ffffffffffffffffffffffffffffffffffffffff1673ffffffffffffffffffffffffffffffffffffffff1681526020019081526020016000208054905061299e90919063ffffffff16565b905060006006600084815260200190815260200160002054905081811461284e576000600560008673ffffffffffffffffffffffffffffffffffffffff1673ffffffffffffffffffffffffffffffffffffffff16815260200190815260200160002083815481106127ce57fe5b9060005260206000200154905080600560008773ffffffffffffffffffffffffffffffffffffffff1673ffffffffffffffffffffffffffffffffffffffff168152602001908152602001600020838154811061282657fe5b9060005260206000200181905550816006600083815260200190815260200160002081905550505b600560008573ffffffffffffffffffffffffffffffffffffffff1673ffffffffffffffffffffffffffffffffffffffff1681526020019081526020016000208054809190600190036128a09190612ad9565b5050505050565b6001816000016000828254019250508190555050565b600073ffffffffffffffffffffffffffffffffffffffff166002600083815260200190815260200160002060009054906101000a900473ffffffffffffffffffffffffffffffffffffffff1673ffffffffffffffffffffffffffffffffffffffff16146129785760006002600083815260200190815260200160002060006101000a81548173ffffffffffffffffffffffffffffffffffffffff021916908373ffffffffffffffffffffffffffffffffffffffff1602179055505b50565b6129936001826000015461299e90919063ffffffff16565b816000018190555050565b600082821115612a16576040517f08c379a000000000000000000000000000000000000000000000000000000000815260040180806020018281038252601e8152602001807f536166654d6174683a207375627472616374696f6e206f766572666c6f77000081525060200191505060405180910390fd5b600082840390508091505092915050565b6040518060800160405280600081526020016000815260200160008152602001606081525090565b828054828255906000526020600020908101928215612ac8579160200282015b82811115612ac75782518260006101000a81548173ffffffffffffffffffffffffffffffffffffffff021916908373ffffffffffffffffffffffffffffffffffffffff16021790555091602001919060010190612a6f565b5b509050612ad59190612b05565b5090565b815481835581811115612b0057818360005260206000209182019101612aff9190612b48565b5b505050565b612b4591905b80821115612b4157600081816101000a81549073ffffffffffffffffffffffffffffffffffffffff021916905550600101612b0b565b5090565b90565b612b6a91905b80821115612b66576000816000905550600101612b4e565b5090565b9056fe455243373231456e756d657261626c653a206f776e657220696e646578206f7574206f6620626f756e64734552433732313a207472616e7366657220746f206e6f6e20455243373231526563656976657220696d706c656d656e7465724552433732313a207472616e7366657220746f20746865207a65726f20616464726573734552433732313a206f70657261746f7220717565727920666f72206e6f6e6578697374656e7420746f6b656e746f6b656e206f776e657220646964206e6f7420617070726f766520636f6e74726163744552433732313a20617070726f76652063616c6c6572206973206e6f74206f776e6572206e6f7220617070726f76656420666f7220616c6c4552433732313a2062616c616e636520717565727920666f7220746865207a65726f20616464726573734552433732313a206f776e657220717565727920666f72206e6f6e6578697374656e7420746f6b656e63616c6c65722073656e74206b6c6179206c6f776572207468616e2070726963654552433732313a20617070726f76656420717565727920666f72206e6f6e6578697374656e7420746f6b656e4552433732313a207472616e73666572206f6620746f6b656e2074686174206973206e6f74206f776e4552433732313a20617070726f76616c20746f2063757272656e74206f776e65724552433732313a207472616e736665722063616c6c6572206973206e6f74206f776e6572206e6f7220617070726f766564455243373231456e756d657261626c653a20676c6f62616c20696e646578206f7574206f6620626f756e6473a265627a7a72315820674fab7d39c90272e7b08a7e5e1e94841e4ad1b520d45d32b30cc0493d358ee064736f6c63430005100032",
  "source": "pragma solidity 0.5.16;\n\nimport './ERC721/ERC721.sol';\nimport './ERC721/ERC721Enumerable.sol';\n\ncontract Story is ERC721, ERC721Enumerable {\n    event StoryUploaded(\n        uint256 indexed tokenId,\n        uint256 indexed storyId,\n        uint256 timestamp\n    );\n\n    mapping(uint256 => uint256) public _tokenPrice;\n\n    mapping(uint256 => StoryData) public _stories;\n\n    struct StoryData {\n        uint256 tokenId; // Unique token identifier\n        uint256 storyId; // Unique story identifier\n        uint256 timestamp; // Uploaded time\n        address[] ownerHistory; // History of all previous owners\n    }\n\n    function setForSale(uint256 _tokenId, uint256 _price) public {\n        address tokenOwner = ownerOf(_tokenId);\n        require(tokenOwner == msg.sender, 'caller is not token owner');\n        require(_price > 0, 'price is zero or lower');\n        require(\n            isApprovedForAll(tokenOwner, address(this)),\n            'token owner did not approve contract'\n        );\n        _tokenPrice[_tokenId] = _price;\n    }\n\n    function purchaseToken(uint256 _tokenId) public payable {\n        uint256 price = _tokenPrice[_tokenId];\n        address tokenSeller = ownerOf(_tokenId);\n        require(msg.value >= price, 'caller sent klay lower than price');\n        require(msg.sender != tokenSeller, 'caller is token seller');\n        address payable payableTokenSeller = address(uint160(tokenSeller));\n        payableTokenSeller.transfer(msg.value);\n        safeTransferFrom(tokenSeller, msg.sender, _tokenId);\n        _tokenPrice[_tokenId] = 0;\n    }\n\n    function removeTokenOnSale(uint256[] memory _tokenIds) public {\n        require(_tokenIds.length > 0, 'tokenIds is empty');\n        for (uint256 i = 0; i < _tokenIds.length; i++) {\n            uint256 tokenId = _tokenIds[i];\n            address tokenSeller = ownerOf(tokenId);\n            require(msg.sender == tokenSeller, 'caller is not token seller');\n            _tokenPrice[tokenId] = 0;\n        }\n    }\n\n    /**\n     * @notice _mint() is from ERC721.sol\n     */\n    function mintStory(uint256 storyId) public {\n        // create a token Id\n        uint256 tokenId = totalSupply() + 1;\n\n        // mint the token\n        _mint(msg.sender, tokenId);\n\n        address[] memory ownerHistory;\n\n        StoryData memory story = StoryData({\n            tokenId: tokenId,\n            storyId: storyId,\n            timestamp: now,\n            ownerHistory: ownerHistory\n        });\n\n        _stories[tokenId] = story;\n        _stories[tokenId].ownerHistory.push(msg.sender);\n\n        emit StoryUploaded(tokenId, storyId, now);\n    }\n\n    /**\n     * @notice safeTransferFrom function checks whether receiver is able to handle ERC721 tokens\n     *  and then it will call transferFrom function defined below\n     */\n    function transferOwnership(uint256 tokenId, address to)\n        public\n        returns (\n            uint256,\n            address,\n            address,\n            address\n        )\n    {\n        safeTransferFrom(msg.sender, to, tokenId);\n        uint256 ownerHistoryLength = _stories[tokenId].ownerHistory.length;\n        return (\n            _stories[tokenId].tokenId,\n            //original owner\n            _stories[tokenId].ownerHistory[0],\n            //previous owner, length cannot be less than 2\n            _stories[tokenId].ownerHistory[ownerHistoryLength - 2],\n            //current owner\n            _stories[tokenId].ownerHistory[ownerHistoryLength - 1]\n        );\n    }\n\n    /**\n     * @notice Recommand using transferOwnership, which uses safeTransferFrom function\n     * @dev Overided transferFrom function to make sure that every time ownership transfers\n     *  new owner address gets pushed into ownerHistory array\n     */\n    function transferFrom(\n        address from,\n        address to,\n        uint256 tokenId\n    ) public {\n        super.transferFrom(from, to, tokenId);\n        _stories[tokenId].ownerHistory.push(to);\n    }\n\n    function getTotalCount() public view returns (uint256) {\n        return totalSupply();\n    }\n\n    function getStory(uint256 tokenId)\n        public\n        view\n        returns (\n            uint256,\n            uint256,\n            address[] memory,\n            uint256\n        )\n    {\n        require(_stories[tokenId].tokenId != 0, 'Story does not exist');\n        return (\n            _stories[tokenId].tokenId,\n            _stories[tokenId].storyId,\n            _stories[tokenId].ownerHistory,\n            _stories[tokenId].timestamp\n        );\n    }\n}\n",
  "sourcePath": "/Users/ominseob/Project/WebProject/story/story-app-server/contracts/Story.sol",
  "compiler": {
    "name": "solc",
    "version": "0.5.16+commit.9c3226ce.Emscripten.clang"
  },
  "schemaVersion": "3.1.0",
  "updatedAt": "2022-02-10T14:14:28.589Z",
  "networkType": "ethereum",
  "devdoc": {
    "methods": {
      "approve(address,uint256)": {
        "details": "  ID    . (zero)     .        .       .",
        "params": {
          "to": "address   ID   ",
          "tokenId": "uint256    ID"
        }
      },
      "balanceOf(address)": {
        "details": "   .",
        "params": {
          "owner": "  "
        },
        "return": "uint256    "
      },
      "getApproved(uint256)": {
        "details": " ID   ,     0 .   ID    .",
        "params": {
          "tokenId": "uint256     ID"
        },
        "return": "address   ID    "
      },
      "isApprovedForAll(address,address)": {
        "details": "      .",
        "params": {
          "operator": "    ",
          "owner": "    "
        },
        "return": "bool      "
      },
      "ownerOf(uint256)": {
        "details": "  ID  .",
        "params": {
          "tokenId": "uint256    ID"
        },
        "return": "address   ID   "
      },
      "safeTransferFrom(address,address,uint256)": {
        "details": "Safely transfers the ownership of a given token ID to another address If the target address is a contract, it must implement `onERC721Received`, which is called upon a safe transfer, and return the magic value `bytes4(keccak256(\"onERC721Received(address,address,uint256,bytes)\"))`; otherwise, the transfer is reverted. Requires the msg.sender to be the owner, approved, or operator",
        "params": {
          "from": "current owner of the token",
          "to": "address to receive the ownership of the given token ID",
          "tokenId": "uint256 ID of the token to be transferred"
        }
      },
      "safeTransferFrom(address,address,uint256,bytes)": {
        "details": "Safely transfers the ownership of a given token ID to another address If the target address is a contract, it must implement `onERC721Received`, which is called upon a safe transfer, and return the magic value `bytes4(keccak256(\"onERC721Received(address,address,uint256,bytes)\"))`; otherwise, the transfer is reverted. Requires the msg.sender to be the owner, approved, or operator",
        "params": {
          "_data": "bytes data to send along with a safe transfer check",
          "from": "current owner of the token",
          "to": "address to receive the ownership of the given token ID",
          "tokenId": "uint256 ID of the token to be transferred"
        }
      },
      "setApprovalForAll(address,bool)": {
        "details": "     .         .",
        "params": {
          "approved": "    ",
          "to": "    "
        }
      },
      "supportsInterface(bytes4)": {
        "details": "`IERC165.supportsInterface` .     *   O(1),  30000    ."
      },
      "tokenByIndex(uint256)": {
        "details": "Gets the token ID at a given index of all the tokens in this contract Reverts if the index is greater or equal to the total number of tokens.",
        "params": {
          "index": "uint256 representing the index to be accessed of the tokens list"
        },
        "return": "uint256 token ID at the given index of the tokens list"
      },
      "tokenOfOwnerByIndex(address,uint256)": {
        "details": "Gets the token ID at a given index of the tokens list of the requested owner.",
        "params": {
          "index": "uint256 representing the index to be accessed of the requested tokens list",
          "owner": "address owning the tokens list to be accessed"
        },
        "return": "uint256 token ID at the given index of the tokens list owned by the requested address"
      },
      "totalSupply()": {
        "details": "Gets the total amount of tokens stored by the contract.",
        "return": "uint256 representing the total amount of tokens"
      },
      "transferFrom(address,address,uint256)": {
        "details": "Overided transferFrom function to make sure that every time ownership transfers new owner address gets pushed into ownerHistory array"
      }
    }
  },
  "userdoc": {
    "methods": {
      "mintStory(uint256)": {
        "notice": "_mint() is from ERC721.sol"
      },
      "transferFrom(address,address,uint256)": {
        "notice": "Recommand using transferOwnership, which uses safeTransferFrom function"
      },
      "transferOwnership(uint256,address)": {
        "notice": "safeTransferFrom function checks whether receiver is able to handle ERC721 tokens and then it will call transferFrom function defined below"
      }
    }
  }
}