{
  "contractName": "StoryNFTs",
  "abi": [
    {
      "inputs": [],
      "stateMutability": "nonpayable",
      "type": "constructor"
    },
    {
      "anonymous": false,
      "inputs": [
        {
          "indexed": true,
          "internalType": "address",
          "name": "owner",
          "type": "address"
        },
        {
          "indexed": true,
          "internalType": "address",
          "name": "approved",
          "type": "address"
        },
        {
          "indexed": true,
          "internalType": "uint256",
          "name": "tokenId",
          "type": "uint256"
        }
      ],
      "name": "Approval",
      "type": "event"
    },
    {
      "anonymous": false,
      "inputs": [
        {
          "indexed": true,
          "internalType": "address",
          "name": "owner",
          "type": "address"
        },
        {
          "indexed": true,
          "internalType": "address",
          "name": "operator",
          "type": "address"
        },
        {
          "indexed": false,
          "internalType": "bool",
          "name": "approved",
          "type": "bool"
        }
      ],
      "name": "ApprovalForAll",
      "type": "event"
    },
    {
      "anonymous": false,
      "inputs": [
        {
          "indexed": true,
          "internalType": "address",
          "name": "previousOwner",
          "type": "address"
        },
        {
          "indexed": true,
          "internalType": "address",
          "name": "newOwner",
          "type": "address"
        }
      ],
      "name": "OwnershipTransferred",
      "type": "event"
    },
    {
      "anonymous": false,
      "inputs": [
        {
          "indexed": true,
          "internalType": "address",
          "name": "from",
          "type": "address"
        },
        {
          "indexed": true,
          "internalType": "address",
          "name": "to",
          "type": "address"
        },
        {
          "indexed": true,
          "internalType": "uint256",
          "name": "tokenId",
          "type": "uint256"
        }
      ],
      "name": "Transfer",
      "type": "event"
    },
    {
      "inputs": [
        {
          "internalType": "address",
          "name": "to",
          "type": "address"
        },
        {
          "internalType": "uint256",
          "name": "tokenId",
          "type": "uint256"
        }
      ],
      "name": "approve",
      "outputs": [],
      "stateMutability": "nonpayable",
      "type": "function"
    },
    {
      "inputs": [
        {
          "internalType": "address",
          "name": "owner",
          "type": "address"
        }
      ],
      "name": "balanceOf",
      "outputs": [
        {
          "internalType": "uint256",
          "name": "",
          "type": "uint256"
        }
      ],
      "stateMutability": "view",
      "type": "function",
      "constant": true
    },
    {
      "inputs": [
        {
          "internalType": "uint256",
          "name": "tokenId",
          "type": "uint256"
        }
      ],
      "name": "getApproved",
      "outputs": [
        {
          "internalType": "address",
          "name": "",
          "type": "address"
        }
      ],
      "stateMutability": "view",
      "type": "function",
      "constant": true
    },
    {
      "inputs": [
        {
          "internalType": "address",
          "name": "owner",
          "type": "address"
        },
        {
          "internalType": "address",
          "name": "operator",
          "type": "address"
        }
      ],
      "name": "isApprovedForAll",
      "outputs": [
        {
          "internalType": "bool",
          "name": "",
          "type": "bool"
        }
      ],
      "stateMutability": "view",
      "type": "function",
      "constant": true
    },
    {
      "inputs": [],
      "name": "name",
      "outputs": [
        {
          "internalType": "string",
          "name": "",
          "type": "string"
        }
      ],
      "stateMutability": "view",
      "type": "function",
      "constant": true
    },
    {
      "inputs": [],
      "name": "owner",
      "outputs": [
        {
          "internalType": "address",
          "name": "",
          "type": "address"
        }
      ],
      "stateMutability": "view",
      "type": "function",
      "constant": true
    },
    {
      "inputs": [
        {
          "internalType": "uint256",
          "name": "tokenId",
          "type": "uint256"
        }
      ],
      "name": "ownerOf",
      "outputs": [
        {
          "internalType": "address",
          "name": "",
          "type": "address"
        }
      ],
      "stateMutability": "view",
      "type": "function",
      "constant": true
    },
    {
      "inputs": [],
      "name": "renounceOwnership",
      "outputs": [],
      "stateMutability": "nonpayable",
      "type": "function"
    },
    {
      "inputs": [
        {
          "internalType": "address",
          "name": "from",
          "type": "address"
        },
        {
          "internalType": "address",
          "name": "to",
          "type": "address"
        },
        {
          "internalType": "uint256",
          "name": "tokenId",
          "type": "uint256"
        }
      ],
      "name": "safeTransferFrom",
      "outputs": [],
      "stateMutability": "nonpayable",
      "type": "function"
    },
    {
      "inputs": [
        {
          "internalType": "address",
          "name": "from",
          "type": "address"
        },
        {
          "internalType": "address",
          "name": "to",
          "type": "address"
        },
        {
          "internalType": "uint256",
          "name": "tokenId",
          "type": "uint256"
        },
        {
          "internalType": "bytes",
          "name": "data",
          "type": "bytes"
        }
      ],
      "name": "safeTransferFrom",
      "outputs": [],
      "stateMutability": "nonpayable",
      "type": "function"
    },
    {
      "inputs": [
        {
          "internalType": "address",
          "name": "operator",
          "type": "address"
        },
        {
          "internalType": "bool",
          "name": "approved",
          "type": "bool"
        }
      ],
      "name": "setApprovalForAll",
      "outputs": [],
      "stateMutability": "nonpayable",
      "type": "function"
    },
    {
      "inputs": [],
      "name": "symbol",
      "outputs": [
        {
          "internalType": "string",
          "name": "",
          "type": "string"
        }
      ],
      "stateMutability": "view",
      "type": "function",
      "constant": true
    },
    {
      "inputs": [
        {
          "internalType": "uint256",
          "name": "index",
          "type": "uint256"
        }
      ],
      "name": "tokenByIndex",
      "outputs": [
        {
          "internalType": "uint256",
          "name": "",
          "type": "uint256"
        }
      ],
      "stateMutability": "view",
      "type": "function",
      "constant": true
    },
    {
      "inputs": [
        {
          "internalType": "address",
          "name": "owner",
          "type": "address"
        },
        {
          "internalType": "uint256",
          "name": "index",
          "type": "uint256"
        }
      ],
      "name": "tokenOfOwnerByIndex",
      "outputs": [
        {
          "internalType": "uint256",
          "name": "",
          "type": "uint256"
        }
      ],
      "stateMutability": "view",
      "type": "function",
      "constant": true
    },
    {
      "inputs": [
        {
          "internalType": "uint256",
          "name": "tokenId",
          "type": "uint256"
        }
      ],
      "name": "tokenURI",
      "outputs": [
        {
          "internalType": "string",
          "name": "",
          "type": "string"
        }
      ],
      "stateMutability": "view",
      "type": "function",
      "constant": true
    },
    {
      "inputs": [],
      "name": "totalSupply",
      "outputs": [
        {
          "internalType": "uint256",
          "name": "",
          "type": "uint256"
        }
      ],
      "stateMutability": "view",
      "type": "function",
      "constant": true
    },
    {
      "inputs": [
        {
          "internalType": "address",
          "name": "from",
          "type": "address"
        },
        {
          "internalType": "address",
          "name": "to",
          "type": "address"
        },
        {
          "internalType": "uint256",
          "name": "tokenId",
          "type": "uint256"
        }
      ],
      "name": "transferFrom",
      "outputs": [],
      "stateMutability": "nonpayable",
      "type": "function"
    },
    {
      "inputs": [
        {
          "internalType": "address",
          "name": "newOwner",
          "type": "address"
        }
      ],
      "name": "transferOwnership",
      "outputs": [],
      "stateMutability": "nonpayable",
      "type": "function"
    },
    {
      "inputs": [
        {
          "internalType": "bytes4",
          "name": "interfaceId",
          "type": "bytes4"
        }
      ],
      "name": "supportsInterface",
      "outputs": [
        {
          "internalType": "bool",
          "name": "",
          "type": "bool"
        }
      ],
      "stateMutability": "view",
      "type": "function",
      "constant": true
    },
    {
      "inputs": [
        {
          "internalType": "uint256",
          "name": "storyId",
          "type": "uint256"
        }
      ],
      "name": "mintNFT",
      "outputs": [
        {
          "internalType": "uint256",
          "name": "",
          "type": "uint256"
        }
      ],
      "stateMutability": "nonpayable",
      "type": "function"
    }
  ],
  "bytecode": "0x60806040523480156200001157600080fd5b506040518060400160405280600981526020017f53746f72794e46547300000000000000000000000000000000000000000000008152506040518060400160405280600481526020017f534e465400000000000000000000000000000000000000000000000000000000815250816000908051906020019062000096929190620001a6565b508060019080519060200190620000af929190620001a6565b505050620000d2620000c6620000d860201b60201c565b620000e060201b60201c565b620002bb565b600033905090565b6000600a60009054906101000a900473ffffffffffffffffffffffffffffffffffffffff16905081600a60006101000a81548173ffffffffffffffffffffffffffffffffffffffff021916908373ffffffffffffffffffffffffffffffffffffffff1602179055508173ffffffffffffffffffffffffffffffffffffffff168173ffffffffffffffffffffffffffffffffffffffff167f8be0079c531659141344cd1fd0a4f28419497f9722a3daafe3b4186f6b6457e060405160405180910390a35050565b828054620001b49062000256565b90600052602060002090601f016020900481019282620001d8576000855562000224565b82601f10620001f357805160ff191683800117855562000224565b8280016001018555821562000224579182015b828111156200022357825182559160200191906001019062000206565b5b50905062000233919062000237565b5090565b5b808211156200025257600081600090555060010162000238565b5090565b600060028204905060018216806200026f57607f821691505b602082108114156200028657620002856200028c565b5b50919050565b7f4e487b7100000000000000000000000000000000000000000000000000000000600052602260045260246000fd5b61304f80620002cb6000396000f3fe608060405234801561001057600080fd5b506004361061012c5760003560e01c806370a08231116100ad578063a22cb46511610071578063a22cb46514610357578063b88d4fde14610373578063c87b56dd1461038f578063e985e9c5146103bf578063f2fde38b146103ef5761012c565b806370a08231146102b1578063715018a6146102e15780638da5cb5b146102eb578063926427441461030957806395d89b41146103395761012c565b806323b872dd116100f457806323b872dd146101e95780632f745c591461020557806342842e0e146102355780634f6ccce7146102515780636352211e146102815761012c565b806301ffc9a71461013157806306fdde0314610161578063081812fc1461017f578063095ea7b3146101af57806318160ddd146101cb575b600080fd5b61014b6004803603810190610146919061218d565b61040b565b604051610158919061257c565b60405180910390f35b61016961041d565b6040516101769190612597565b60405180910390f35b610199600480360381019061019491906121e7565b6104af565b6040516101a69190612515565b60405180910390f35b6101c960048036038101906101c4919061214d565b6104f5565b005b6101d361060d565b6040516101e09190612799565b60405180910390f35b61020360048036038101906101fe9190612037565b61061a565b005b61021f600480360381019061021a919061214d565b61067a565b60405161022c9190612799565b60405180910390f35b61024f600480360381019061024a9190612037565b61071f565b005b61026b600480360381019061026691906121e7565b61073f565b6040516102789190612799565b60405180910390f35b61029b600480360381019061029691906121e7565b6107b0565b6040516102a89190612515565b60405180910390f35b6102cb60048036038101906102c69190611fca565b610862565b6040516102d89190612799565b60405180910390f35b6102e961091a565b005b6102f361092e565b6040516103009190612515565b60405180910390f35b610323600480360381019061031e91906121e7565b610958565b6040516103309190612799565b60405180910390f35b6103416109b2565b60405161034e9190612597565b60405180910390f35b610371600480360381019061036c919061210d565b610a44565b005b61038d6004803603810190610388919061208a565b610a5a565b005b6103a960048036038101906103a491906121e7565b610abc565b6040516103b69190612597565b60405180910390f35b6103d960048036038101906103d49190611ff7565b610b24565b6040516103e6919061257c565b60405180910390f35b61040960048036038101906104049190611fca565b610bb8565b005b600061041682610c3c565b9050919050565b60606000805461042c906129be565b80601f0160208091040260200160405190810160405280929190818152602001828054610458906129be565b80156104a55780601f1061047a576101008083540402835291602001916104a5565b820191906000526020600020905b81548152906001019060200180831161048857829003601f168201915b5050505050905090565b60006104ba82610cb6565b6004600083815260200190815260200160002060009054906101000a900473ffffffffffffffffffffffffffffffffffffffff169050919050565b6000610500826107b0565b90508073ffffffffffffffffffffffffffffffffffffffff168373ffffffffffffffffffffffffffffffffffffffff161415610571576040517f08c379a000000000000000000000000000000000000000000000000000000000815260040161056890612739565b60405180910390fd5b8073ffffffffffffffffffffffffffffffffffffffff16610590610d01565b73ffffffffffffffffffffffffffffffffffffffff1614806105bf57506105be816105b9610d01565b610b24565b5b6105fe576040517f08c379a00000000000000000000000000000000000000000000000000000000081526004016105f5906126b9565b60405180910390fd5b6106088383610d09565b505050565b6000600880549050905090565b61062b610625610d01565b82610dc2565b61066a576040517f08c379a000000000000000000000000000000000000000000000000000000000815260040161066190612779565b60405180910390fd5b610675838383610e57565b505050565b600061068583610862565b82106106c6576040517f08c379a00000000000000000000000000000000000000000000000000000000081526004016106bd906125b9565b60405180910390fd5b600660008473ffffffffffffffffffffffffffffffffffffffff1673ffffffffffffffffffffffffffffffffffffffff168152602001908152602001600020600083815260200190815260200160002054905092915050565b61073a83838360405180602001604052806000815250610a5a565b505050565b600061074961060d565b821061078a576040517f08c379a000000000000000000000000000000000000000000000000000000000815260040161078190612759565b60405180910390fd5b6008828154811061079e5761079d612b57565b5b90600052602060002001549050919050565b6000806002600084815260200190815260200160002060009054906101000a900473ffffffffffffffffffffffffffffffffffffffff169050600073ffffffffffffffffffffffffffffffffffffffff168173ffffffffffffffffffffffffffffffffffffffff161415610859576040517f08c379a000000000000000000000000000000000000000000000000000000000815260040161085090612719565b60405180910390fd5b80915050919050565b60008073ffffffffffffffffffffffffffffffffffffffff168273ffffffffffffffffffffffffffffffffffffffff1614156108d3576040517f08c379a00000000000000000000000000000000000000000000000000000000081526004016108ca90612699565b60405180910390fd5b600360008373ffffffffffffffffffffffffffffffffffffffff1673ffffffffffffffffffffffffffffffffffffffff168152602001908152602001600020549050919050565b6109226110be565b61092c600061113c565b565b6000600a60009054906101000a900473ffffffffffffffffffffffffffffffffffffffff16905090565b60006109626110be565b6000600161096e61060d565b610978919061284d565b90506109908184600b6112029092919063ffffffff16565b61099a3382611222565b60006109a6600b6113fc565b90508092505050919050565b6060600180546109c1906129be565b80601f01602080910402602001604051908101604052809291908181526020018280546109ed906129be565b8015610a3a5780601f10610a0f57610100808354040283529160200191610a3a565b820191906000526020600020905b815481529060010190602001808311610a1d57829003601f168201915b5050505050905090565b610a56610a4f610d01565b838361140a565b5050565b610a6b610a65610d01565b83610dc2565b610aaa576040517f08c379a0000000000000000000000000000000000000000000000000000000008152600401610aa190612779565b60405180910390fd5b610ab684848484611577565b50505050565b6060610ac782610cb6565b6000610ad16115d3565b90506000815111610af15760405180602001604052806000815250610b1c565b80610afb846115ea565b604051602001610b0c9291906124f1565b6040516020818303038152906040525b915050919050565b6000600560008473ffffffffffffffffffffffffffffffffffffffff1673ffffffffffffffffffffffffffffffffffffffff16815260200190815260200160002060008373ffffffffffffffffffffffffffffffffffffffff1673ffffffffffffffffffffffffffffffffffffffff16815260200190815260200160002060009054906101000a900460ff16905092915050565b610bc06110be565b600073ffffffffffffffffffffffffffffffffffffffff168173ffffffffffffffffffffffffffffffffffffffff161415610c30576040517f08c379a0000000000000000000000000000000000000000000000000000000008152600401610c27906125f9565b60405180910390fd5b610c398161113c565b50565b60007f780e9d63000000000000000000000000000000000000000000000000000000007bffffffffffffffffffffffffffffffffffffffffffffffffffffffff1916827bffffffffffffffffffffffffffffffffffffffffffffffffffffffff19161480610caf5750610cae8261174b565b5b9050919050565b610cbf8161182d565b610cfe576040517f08c379a0000000000000000000000000000000000000000000000000000000008152600401610cf590612719565b60405180910390fd5b50565b600033905090565b816004600083815260200190815260200160002060006101000a81548173ffffffffffffffffffffffffffffffffffffffff021916908373ffffffffffffffffffffffffffffffffffffffff160217905550808273ffffffffffffffffffffffffffffffffffffffff16610d7c836107b0565b73ffffffffffffffffffffffffffffffffffffffff167f8c5be1e5ebec7d5bd14f71427d1e84f3dd0314c0f7b2291e5b200ac8c7c3b92560405160405180910390a45050565b600080610dce836107b0565b90508073ffffffffffffffffffffffffffffffffffffffff168473ffffffffffffffffffffffffffffffffffffffff161480610e105750610e0f8185610b24565b5b80610e4e57508373ffffffffffffffffffffffffffffffffffffffff16610e36846104af565b73ffffffffffffffffffffffffffffffffffffffff16145b91505092915050565b8273ffffffffffffffffffffffffffffffffffffffff16610e77826107b0565b73ffffffffffffffffffffffffffffffffffffffff1614610ecd576040517f08c379a0000000000000000000000000000000000000000000000000000000008152600401610ec490612619565b60405180910390fd5b600073ffffffffffffffffffffffffffffffffffffffff168273ffffffffffffffffffffffffffffffffffffffff161415610f3d576040517f08c379a0000000000000000000000000000000000000000000000000000000008152600401610f3490612659565b60405180910390fd5b610f48838383611899565b610f53600082610d09565b6001600360008573ffffffffffffffffffffffffffffffffffffffff1673ffffffffffffffffffffffffffffffffffffffff1681526020019081526020016000206000828254610fa391906128d4565b925050819055506001600360008473ffffffffffffffffffffffffffffffffffffffff1673ffffffffffffffffffffffffffffffffffffffff1681526020019081526020016000206000828254610ffa919061284d565b92505081905550816002600083815260200190815260200160002060006101000a81548173ffffffffffffffffffffffffffffffffffffffff021916908373ffffffffffffffffffffffffffffffffffffffff160217905550808273ffffffffffffffffffffffffffffffffffffffff168473ffffffffffffffffffffffffffffffffffffffff167fddf252ad1be2c89b69c2b068fc378daa952ba7f163c4a11628f55a4df523b3ef60405160405180910390a46110b98383836118a9565b505050565b6110c6610d01565b73ffffffffffffffffffffffffffffffffffffffff166110e461092e565b73ffffffffffffffffffffffffffffffffffffffff161461113a576040517f08c379a0000000000000000000000000000000000000000000000000000000008152600401611131906126f9565b60405180910390fd5b565b6000600a60009054906101000a900473ffffffffffffffffffffffffffffffffffffffff16905081600a60006101000a81548173ffffffffffffffffffffffffffffffffffffffff021916908373ffffffffffffffffffffffffffffffffffffffff1602179055508173ffffffffffffffffffffffffffffffffffffffff168173ffffffffffffffffffffffffffffffffffffffff167f8be0079c531659141344cd1fd0a4f28419497f9722a3daafe3b4186f6b6457e060405160405180910390a35050565b818360000181905550808360010181905550428360020181905550505050565b600073ffffffffffffffffffffffffffffffffffffffff168273ffffffffffffffffffffffffffffffffffffffff161415611292576040517f08c379a0000000000000000000000000000000000000000000000000000000008152600401611289906126d9565b60405180910390fd5b61129b8161182d565b156112db576040517f08c379a00000000000000000000000000000000000000000000000000000000081526004016112d290612639565b60405180910390fd5b6112e760008383611899565b6001600360008473ffffffffffffffffffffffffffffffffffffffff1673ffffffffffffffffffffffffffffffffffffffff1681526020019081526020016000206000828254611337919061284d565b92505081905550816002600083815260200190815260200160002060006101000a81548173ffffffffffffffffffffffffffffffffffffffff021916908373ffffffffffffffffffffffffffffffffffffffff160217905550808273ffffffffffffffffffffffffffffffffffffffff16600073ffffffffffffffffffffffffffffffffffffffff167fddf252ad1be2c89b69c2b068fc378daa952ba7f163c4a11628f55a4df523b3ef60405160405180910390a46113f8600083836118a9565b5050565b600081600001549050919050565b8173ffffffffffffffffffffffffffffffffffffffff168373ffffffffffffffffffffffffffffffffffffffff161415611479576040517f08c379a000000000000000000000000000000000000000000000000000000000815260040161147090612679565b60405180910390fd5b80600560008573ffffffffffffffffffffffffffffffffffffffff1673ffffffffffffffffffffffffffffffffffffffff16815260200190815260200160002060008473ffffffffffffffffffffffffffffffffffffffff1673ffffffffffffffffffffffffffffffffffffffff16815260200190815260200160002060006101000a81548160ff0219169083151502179055508173ffffffffffffffffffffffffffffffffffffffff168373ffffffffffffffffffffffffffffffffffffffff167f17307eab39ab6107e8899845ad3d59bd9653f200f220920489ca2b5937696c318360405161156a919061257c565b60405180910390a3505050565b611582848484610e57565b61158e848484846118ae565b6115cd576040517f08c379a00000000000000000000000000000000000000000000000000000000081526004016115c4906125d9565b60405180910390fd5b50505050565b606060405180602001604052806000815250905090565b60606000821415611632576040518060400160405280600181526020017f30000000000000000000000000000000000000000000000000000000000000008152509050611746565b600082905060005b6000821461166457808061164d90612a21565b915050600a8261165d91906128a3565b915061163a565b60008167ffffffffffffffff8111156116805761167f612b86565b5b6040519080825280601f01601f1916602001820160405280156116b25781602001600182028036833780820191505090505b5090505b6000851461173f576001826116cb91906128d4565b9150600a856116da9190612a6a565b60306116e6919061284d565b60f81b8183815181106116fc576116fb612b57565b5b60200101907effffffffffffffffffffffffffffffffffffffffffffffffffffffffffffff1916908160001a905350600a8561173891906128a3565b94506116b6565b8093505050505b919050565b60007f80ac58cd000000000000000000000000000000000000000000000000000000007bffffffffffffffffffffffffffffffffffffffffffffffffffffffff1916827bffffffffffffffffffffffffffffffffffffffffffffffffffffffff1916148061181657507f5b5e139f000000000000000000000000000000000000000000000000000000007bffffffffffffffffffffffffffffffffffffffffffffffffffffffff1916827bffffffffffffffffffffffffffffffffffffffffffffffffffffffff1916145b80611826575061182582611a45565b5b9050919050565b60008073ffffffffffffffffffffffffffffffffffffffff166002600084815260200190815260200160002060009054906101000a900473ffffffffffffffffffffffffffffffffffffffff1673ffffffffffffffffffffffffffffffffffffffff1614159050919050565b6118a4838383611aaf565b505050565b505050565b60006118cf8473ffffffffffffffffffffffffffffffffffffffff16611bc3565b15611a38578373ffffffffffffffffffffffffffffffffffffffff1663150b7a026118f8610d01565b8786866040518563ffffffff1660e01b815260040161191a9493929190612530565b602060405180830381600087803b15801561193457600080fd5b505af192505050801561196557506040513d601f19601f8201168201806040525081019061196291906121ba565b60015b6119e8573d8060008114611995576040519150601f19603f3d011682016040523d82523d6000602084013e61199a565b606091505b506000815114156119e0576040517f08c379a00000000000000000000000000000000000000000000000000000000081526004016119d7906125d9565b60405180910390fd5b805181602001fd5b63150b7a0260e01b7bffffffffffffffffffffffffffffffffffffffffffffffffffffffff1916817bffffffffffffffffffffffffffffffffffffffffffffffffffffffff191614915050611a3d565b600190505b949350505050565b60007f01ffc9a7000000000000000000000000000000000000000000000000000000007bffffffffffffffffffffffffffffffffffffffffffffffffffffffff1916827bffffffffffffffffffffffffffffffffffffffffffffffffffffffff1916149050919050565b611aba838383611be6565b600073ffffffffffffffffffffffffffffffffffffffff168373ffffffffffffffffffffffffffffffffffffffff161415611afd57611af881611beb565b611b3c565b8173ffffffffffffffffffffffffffffffffffffffff168373ffffffffffffffffffffffffffffffffffffffff1614611b3b57611b3a8382611c34565b5b5b600073ffffffffffffffffffffffffffffffffffffffff168273ffffffffffffffffffffffffffffffffffffffff161415611b7f57611b7a81611da1565b611bbe565b8273ffffffffffffffffffffffffffffffffffffffff168273ffffffffffffffffffffffffffffffffffffffff1614611bbd57611bbc8282611e72565b5b5b505050565b6000808273ffffffffffffffffffffffffffffffffffffffff163b119050919050565b505050565b6008805490506009600083815260200190815260200160002081905550600881908060018154018082558091505060019003906000526020600020016000909190919091505550565b60006001611c4184610862565b611c4b91906128d4565b9050600060076000848152602001908152602001600020549050818114611d30576000600660008673ffffffffffffffffffffffffffffffffffffffff1673ffffffffffffffffffffffffffffffffffffffff168152602001908152602001600020600084815260200190815260200160002054905080600660008773ffffffffffffffffffffffffffffffffffffffff1673ffffffffffffffffffffffffffffffffffffffff168152602001908152602001600020600084815260200190815260200160002081905550816007600083815260200190815260200160002081905550505b6007600084815260200190815260200160002060009055600660008573ffffffffffffffffffffffffffffffffffffffff1673ffffffffffffffffffffffffffffffffffffffff16815260200190815260200160002060008381526020019081526020016000206000905550505050565b60006001600880549050611db591906128d4565b9050600060096000848152602001908152602001600020549050600060088381548110611de557611de4612b57565b5b906000526020600020015490508060088381548110611e0757611e06612b57565b5b906000526020600020018190555081600960008381526020019081526020016000208190555060096000858152602001908152602001600020600090556008805480611e5657611e55612b28565b5b6001900381819060005260206000200160009055905550505050565b6000611e7d83610862565b905081600660008573ffffffffffffffffffffffffffffffffffffffff1673ffffffffffffffffffffffffffffffffffffffff168152602001908152602001600020600083815260200190815260200160002081905550806007600084815260200190815260200160002081905550505050565b6000611f04611eff846127d9565b6127b4565b905082815260208101848484011115611f2057611f1f612bba565b5b611f2b84828561297c565b509392505050565b600081359050611f4281612fbd565b92915050565b600081359050611f5781612fd4565b92915050565b600081359050611f6c81612feb565b92915050565b600081519050611f8181612feb565b92915050565b600082601f830112611f9c57611f9b612bb5565b5b8135611fac848260208601611ef1565b91505092915050565b600081359050611fc481613002565b92915050565b600060208284031215611fe057611fdf612bc4565b5b6000611fee84828501611f33565b91505092915050565b6000806040838503121561200e5761200d612bc4565b5b600061201c85828601611f33565b925050602061202d85828601611f33565b9150509250929050565b6000806000606084860312156120505761204f612bc4565b5b600061205e86828701611f33565b935050602061206f86828701611f33565b925050604061208086828701611fb5565b9150509250925092565b600080600080608085870312156120a4576120a3612bc4565b5b60006120b287828801611f33565b94505060206120c387828801611f33565b93505060406120d487828801611fb5565b925050606085013567ffffffffffffffff8111156120f5576120f4612bbf565b5b61210187828801611f87565b91505092959194509250565b6000806040838503121561212457612123612bc4565b5b600061213285828601611f33565b925050602061214385828601611f48565b9150509250929050565b6000806040838503121561216457612163612bc4565b5b600061217285828601611f33565b925050602061218385828601611fb5565b9150509250929050565b6000602082840312156121a3576121a2612bc4565b5b60006121b184828501611f5d565b91505092915050565b6000602082840312156121d0576121cf612bc4565b5b60006121de84828501611f72565b91505092915050565b6000602082840312156121fd576121fc612bc4565b5b600061220b84828501611fb5565b91505092915050565b61221d81612908565b82525050565b61222c8161291a565b82525050565b600061223d8261280a565b6122478185612820565b935061225781856020860161298b565b61226081612bc9565b840191505092915050565b600061227682612815565b6122808185612831565b935061229081856020860161298b565b61229981612bc9565b840191505092915050565b60006122af82612815565b6122b98185612842565b93506122c981856020860161298b565b80840191505092915050565b60006122e2602b83612831565b91506122ed82612bda565b604082019050919050565b6000612305603283612831565b915061231082612c29565b604082019050919050565b6000612328602683612831565b915061233382612c78565b604082019050919050565b600061234b602583612831565b915061235682612cc7565b604082019050919050565b600061236e601c83612831565b915061237982612d16565b602082019050919050565b6000612391602483612831565b915061239c82612d3f565b604082019050919050565b60006123b4601983612831565b91506123bf82612d8e565b602082019050919050565b60006123d7602983612831565b91506123e282612db7565b604082019050919050565b60006123fa603e83612831565b915061240582612e06565b604082019050919050565b600061241d602083612831565b915061242882612e55565b602082019050919050565b6000612440602083612831565b915061244b82612e7e565b602082019050919050565b6000612463601883612831565b915061246e82612ea7565b602082019050919050565b6000612486602183612831565b915061249182612ed0565b604082019050919050565b60006124a9602c83612831565b91506124b482612f1f565b604082019050919050565b60006124cc602e83612831565b91506124d782612f6e565b604082019050919050565b6124eb81612972565b82525050565b60006124fd82856122a4565b915061250982846122a4565b91508190509392505050565b600060208201905061252a6000830184612214565b92915050565b60006080820190506125456000830187612214565b6125526020830186612214565b61255f60408301856124e2565b81810360608301526125718184612232565b905095945050505050565b60006020820190506125916000830184612223565b92915050565b600060208201905081810360008301526125b1818461226b565b905092915050565b600060208201905081810360008301526125d2816122d5565b9050919050565b600060208201905081810360008301526125f2816122f8565b9050919050565b600060208201905081810360008301526126128161231b565b9050919050565b600060208201905081810360008301526126328161233e565b9050919050565b6000602082019050818103600083015261265281612361565b9050919050565b6000602082019050818103600083015261267281612384565b9050919050565b60006020820190508181036000830152612692816123a7565b9050919050565b600060208201905081810360008301526126b2816123ca565b9050919050565b600060208201905081810360008301526126d2816123ed565b9050919050565b600060208201905081810360008301526126f281612410565b9050919050565b6000602082019050818103600083015261271281612433565b9050919050565b6000602082019050818103600083015261273281612456565b9050919050565b6000602082019050818103600083015261275281612479565b9050919050565b600060208201905081810360008301526127728161249c565b9050919050565b60006020820190508181036000830152612792816124bf565b9050919050565b60006020820190506127ae60008301846124e2565b92915050565b60006127be6127cf565b90506127ca82826129f0565b919050565b6000604051905090565b600067ffffffffffffffff8211156127f4576127f3612b86565b5b6127fd82612bc9565b9050602081019050919050565b600081519050919050565b600081519050919050565b600082825260208201905092915050565b600082825260208201905092915050565b600081905092915050565b600061285882612972565b915061286383612972565b9250827fffffffffffffffffffffffffffffffffffffffffffffffffffffffffffffffff0382111561289857612897612a9b565b5b828201905092915050565b60006128ae82612972565b91506128b983612972565b9250826128c9576128c8612aca565b5b828204905092915050565b60006128df82612972565b91506128ea83612972565b9250828210156128fd576128fc612a9b565b5b828203905092915050565b600061291382612952565b9050919050565b60008115159050919050565b60007fffffffff0000000000000000000000000000000000000000000000000000000082169050919050565b600073ffffffffffffffffffffffffffffffffffffffff82169050919050565b6000819050919050565b82818337600083830152505050565b60005b838110156129a957808201518184015260208101905061298e565b838111156129b8576000848401525b50505050565b600060028204905060018216806129d657607f821691505b602082108114156129ea576129e9612af9565b5b50919050565b6129f982612bc9565b810181811067ffffffffffffffff82111715612a1857612a17612b86565b5b80604052505050565b6000612a2c82612972565b91507fffffffffffffffffffffffffffffffffffffffffffffffffffffffffffffffff821415612a5f57612a5e612a9b565b5b600182019050919050565b6000612a7582612972565b9150612a8083612972565b925082612a9057612a8f612aca565b5b828206905092915050565b7f4e487b7100000000000000000000000000000000000000000000000000000000600052601160045260246000fd5b7f4e487b7100000000000000000000000000000000000000000000000000000000600052601260045260246000fd5b7f4e487b7100000000000000000000000000000000000000000000000000000000600052602260045260246000fd5b7f4e487b7100000000000000000000000000000000000000000000000000000000600052603160045260246000fd5b7f4e487b7100000000000000000000000000000000000000000000000000000000600052603260045260246000fd5b7f4e487b7100000000000000000000000000000000000000000000000000000000600052604160045260246000fd5b600080fd5b600080fd5b600080fd5b600080fd5b6000601f19601f8301169050919050565b7f455243373231456e756d657261626c653a206f776e657220696e646578206f7560008201527f74206f6620626f756e6473000000000000000000000000000000000000000000602082015250565b7f4552433732313a207472616e7366657220746f206e6f6e20455243373231526560008201527f63656976657220696d706c656d656e7465720000000000000000000000000000602082015250565b7f4f776e61626c653a206e6577206f776e657220697320746865207a65726f206160008201527f6464726573730000000000000000000000000000000000000000000000000000602082015250565b7f4552433732313a207472616e736665722066726f6d20696e636f72726563742060008201527f6f776e6572000000000000000000000000000000000000000000000000000000602082015250565b7f4552433732313a20746f6b656e20616c7265616479206d696e74656400000000600082015250565b7f4552433732313a207472616e7366657220746f20746865207a65726f2061646460008201527f7265737300000000000000000000000000000000000000000000000000000000602082015250565b7f4552433732313a20617070726f766520746f2063616c6c657200000000000000600082015250565b7f4552433732313a2061646472657373207a65726f206973206e6f74206120766160008201527f6c6964206f776e65720000000000000000000000000000000000000000000000602082015250565b7f4552433732313a20617070726f76652063616c6c6572206973206e6f7420746f60008201527f6b656e206f776e6572206e6f7220617070726f76656420666f7220616c6c0000602082015250565b7f4552433732313a206d696e7420746f20746865207a65726f2061646472657373600082015250565b7f4f776e61626c653a2063616c6c6572206973206e6f7420746865206f776e6572600082015250565b7f4552433732313a20696e76616c696420746f6b656e2049440000000000000000600082015250565b7f4552433732313a20617070726f76616c20746f2063757272656e74206f776e6560008201527f7200000000000000000000000000000000000000000000000000000000000000602082015250565b7f455243373231456e756d657261626c653a20676c6f62616c20696e646578206f60008201527f7574206f6620626f756e64730000000000000000000000000000000000000000602082015250565b7f4552433732313a2063616c6c6572206973206e6f7420746f6b656e206f776e6560008201527f72206e6f7220617070726f766564000000000000000000000000000000000000602082015250565b612fc681612908565b8114612fd157600080fd5b50565b612fdd8161291a565b8114612fe857600080fd5b50565b612ff481612926565b8114612fff57600080fd5b50565b61300b81612972565b811461301657600080fd5b5056fea264697066735822122016ad2f199439ad28770d9b1b73b468937606a47490aa289ca40f3f958c9fd2f964736f6c63430008070033",
  "immutableReferences": {},
  "source": "// SPDX-License-Identifier: MIT\npragma solidity ^0.8.0;\n\nimport '@openzeppelin/contracts/token/ERC721/ERC721.sol';\nimport '@openzeppelin/contracts/utils/Counters.sol';\nimport '@openzeppelin/contracts/access/Ownable.sol';\nimport '@openzeppelin/contracts/token/ERC721/extensions/ERC721Enumerable.sol';\nimport '@openzeppelin/contracts/token/ERC721/extensions/ERC721URIStorage.sol';\n\nimport './Item.sol';\n\ncontract StoryNFTs is ERC721Enumerable, Ownable {\n    using Items for Items.Item;\n    Items.Item private _tokenIds;\n\n    constructor() public ERC721('StoryNFTs', 'SNFT') {}\n\n    function _beforeTokenTransfer(\n        address from,\n        address to,\n        uint256 tokenId\n    ) internal override(ERC721Enumerable) {\n        super._beforeTokenTransfer(from, to, tokenId);\n    }\n\n    function supportsInterface(bytes4 interfaceId)\n        public\n        view\n        override(ERC721Enumerable)\n        returns (bool)\n    {\n        return super.supportsInterface(interfaceId);\n    }\n\n    function _burn(uint256 tokenId) internal override(ERC721) {\n        super._burn(tokenId);\n    }\n\n    function mintNFT(uint256 storyId) public onlyOwner returns (uint256) {\n        // create a token Id\n        uint256 tokenId = totalSupply() + 1;\n\n        _tokenIds.setItem(tokenId, storyId);\n\n        _mint(msg.sender, tokenId);\n\n        uint256 currentTokenId = _tokenIds.current();\n\n        return currentTokenId;\n    }\n}\n",
  "sourcePath": "/Users/ominseob/Project/WebProject/story/story-app-server/contracts/StoryNFTs.sol",
  "compiler": {
    "name": "solc",
    "version": "0.8.7+commit.e28d00a7.Emscripten.clang"
  },
  "schemaVersion": "3.4.8",
  "updatedAt": "2022-08-11T04:47:12.799Z",
  "networkType": "ethereum",
  "devdoc": {
    "kind": "dev",
    "methods": {
      "approve(address,uint256)": {
        "details": "See {IERC721-approve}."
      },
      "balanceOf(address)": {
        "details": "See {IERC721-balanceOf}."
      },
      "getApproved(uint256)": {
        "details": "See {IERC721-getApproved}."
      },
      "isApprovedForAll(address,address)": {
        "details": "See {IERC721-isApprovedForAll}."
      },
      "name()": {
        "details": "See {IERC721Metadata-name}."
      },
      "owner()": {
        "details": "Returns the address of the current owner."
      },
      "ownerOf(uint256)": {
        "details": "See {IERC721-ownerOf}."
      },
      "renounceOwnership()": {
        "details": "Leaves the contract without owner. It will not be possible to call `onlyOwner` functions anymore. Can only be called by the current owner. NOTE: Renouncing ownership will leave the contract without an owner, thereby removing any functionality that is only available to the owner."
      },
      "safeTransferFrom(address,address,uint256)": {
        "details": "See {IERC721-safeTransferFrom}."
      },
      "safeTransferFrom(address,address,uint256,bytes)": {
        "details": "See {IERC721-safeTransferFrom}."
      },
      "setApprovalForAll(address,bool)": {
        "details": "See {IERC721-setApprovalForAll}."
      },
      "supportsInterface(bytes4)": {
        "details": "See {IERC165-supportsInterface}."
      },
      "symbol()": {
        "details": "See {IERC721Metadata-symbol}."
      },
      "tokenByIndex(uint256)": {
        "details": "See {IERC721Enumerable-tokenByIndex}."
      },
      "tokenOfOwnerByIndex(address,uint256)": {
        "details": "See {IERC721Enumerable-tokenOfOwnerByIndex}."
      },
      "tokenURI(uint256)": {
        "details": "See {IERC721Metadata-tokenURI}."
      },
      "totalSupply()": {
        "details": "See {IERC721Enumerable-totalSupply}."
      },
      "transferFrom(address,address,uint256)": {
        "details": "See {IERC721-transferFrom}."
      },
      "transferOwnership(address)": {
        "details": "Transfers ownership of the contract to a new account (`newOwner`). Can only be called by the current owner."
      }
    },
    "version": 1
  },
  "userdoc": {
    "kind": "user",
    "methods": {},
    "version": 1
  }
}